{
  "_format": "hh-sol-artifact-1",
  "contractName": "WavePortal",
  "sourceName": "contracts/WavePortal.sol",
  "abi": [
    {
      "inputs": [],
      "stateMutability": "nonpayable",
      "type": "constructor"
    },
    {
      "inputs": [],
      "name": "getTotalWaves",
      "outputs": [
        {
          "internalType": "uint256",
          "name": "",
          "type": "uint256"
        }
      ],
      "stateMutability": "view",
      "type": "function"
    },
    {
      "inputs": [
        {
          "internalType": "uint256",
          "name": "value",
          "type": "uint256"
        }
      ],
      "name": "mudar_versao_dapp",
      "outputs": [],
      "stateMutability": "nonpayable",
      "type": "function"
    },
    {
      "inputs": [],
      "name": "versao_dapp",
      "outputs": [
        {
          "internalType": "uint256",
          "name": "",
          "type": "uint256"
        }
      ],
      "stateMutability": "view",
      "type": "function"
    },
    {
      "inputs": [],
      "name": "wave",
      "outputs": [],
      "stateMutability": "nonpayable",
      "type": "function"
    }
  ],
  "bytecode": "0x608060405234801561001057600080fd5b5061003c6040518060600160405280602d81526020016104a1602d913961004560201b6101511760201c565b60018055610103565b61008c8160405160240161005991906100b0565b60408051601f198184030181529190526020810180516001600160e01b0390811663104c13eb60e21b1790915261008f16565b50565b80516a636f6e736f6c652e6c6f67602083016000808483855afa5050505050565b6000602080835283518082850152825b818110156100dc578581018301518582016040015282016100c0565b818111156100ed5783604083870101525b50601f01601f1916929092016040019392505050565b61038f806101126000396000f3fe608060405234801561001057600080fd5b506004361061004c5760003560e01c80634e1cdc0a1461005157806367bd26691461006f5780636fe15b44146100845780639a2cdc081461008c575b600080fd5b610059610094565b604051610066919061030b565b60405180910390f35b61008261007d366004610242565b6100d3565b005b6100826100d8565b610059610124565b60006100cc6040518060400160405280601281526020017156657273616f202564204441505021203d2960701b815250600154610197565b5060015490565b600155565b60016000808282546100ea9190610314565b90915550506040805180820190915260128152712573206465752074636861757a696e686f2160701b602082015261012290336101e0565b565b600061014a60405180606001604052806021815260200161033960219139600054610197565b5060005490565b6101948160405160240161016591906102a5565b60408051601f198184030181529190526020810180516001600160e01b031663104c13eb60e21b179052610221565b50565b6101dc82826040516024016101ad9291906102e9565b60408051601f198184030181529190526020810180516001600160e01b03166309710a9d60e41b179052610221565b5050565b6101dc82826040516024016101f69291906102bf565b60408051601f198184030181529190526020810180516001600160e01b031663319af33360e01b1790525b80516a636f6e736f6c652e6c6f67602083016000808483855afa5050505050565b600060208284031215610253578081fd5b5035919050565b60008151808452815b8181101561027f57602081850181015186830182015201610263565b818111156102905782602083870101525b50601f01601f19169290920160200192915050565b6000602082526102b8602083018461025a565b9392505050565b6000604082526102d2604083018561025a565b905060018060a01b03831660208301529392505050565b6000604082526102fc604083018561025a565b90508260208301529392505050565b90815260200190565b6000821982111561033357634e487b7160e01b81526011600452602481fd5b50019056fe54656d6f7320756d20746f74616c2064652025642074636861757a696e686f7321a26469706673582212207fe7c77fcb400d369cccc93b82e754a4b8e966aadb0d6b1a0351466d766773b464736f6c63430008000033556562612c20657520736f7520756d20636f6e747261746f206520657520736f7520696e74656c6967656e7465",
  "linkReferences": {},
  "deployedLinkReferences": {}
}